:1000000005308A00EF2D0000831A0A28A400030E91
:10001000A5000F288312A400030EA500A5140A084A
:10002000AB008A018313A40E0408A6002008A700D1
:100030002108A8002208A9002308AA0083128B1E09
:1000400023280B1934290B1E27288B1846288C309F
:100050008400001C2D280C187F288C308400801C04
:1000600033288C184029260884002708A000280877
:10007000A1002908A2002A08A3002B088A00250E47
:1000800083008312240EA518831609006400E90179
:10009000E80183168C1083120B128B12B801053005
:1000A00090008E01FC308F00B7308E0083160C1448
:1000B0008312CA013314B501B601B701B901B40105
:1000C000BD018B108A1133286400B317440B6D28CF
:1000D0003608CB003508CC007628C408031D7628E6
:1000E0003708CB003608CC003508CD0010108B1037
:1000F0000B1683160C1083128B16BD010800D0015D
:100100001430CF003312331CC02883160515831218
:10011000B3100519B3143311B31833153310331D4D
:10012000A728331DA6288316051583123311051938
:100130003315CF08031D9F28D0080319A4284F08A2
:100140000319D003CF03A52833119128B8283319F8
:10015000B8288316051583123311051933154F0876
:100160000319D003CF0BB728D00803193315A728DC
:10017000053090008E01FF308F0069308E002F29EE
:10018000831605158312B3110519B3153314053001
:1001900090008E01FE308F00A1308E00640033127B
:1001A000B40A4E10CE1034081A3C031C2A29B31886
:1001B000E028B31DE0280314B50DB60DB70D2929AD
:1001C000B31CE928B319E9280310B50DB60DB70D16
:1001D0002929B31C2429B31D24293408113A0319F1
:1001E000FB28033A0319FD280B3A03190D29033A9A
:1001F00003190F291E29CA0A2329CA0A4A08023CE0
:10020000031D09290130C40064204E144E11CE1084
:100210000C2933160B168B162329CA0A2329CA0A5E
:100220004A08023C031D1A29C40164204E104E15D1
:10023000CE101D2933160B168B16232933161010DA
:100240000B168B16BD0129293316BD0110100B1694
:100250008B162F29B316BD0110100B168B1600300C
:10026000A1000C108A1133286400BF0B3D29043013
:10027000BF003D08183C0318BD0A0B118A11332832
:10028000E80A0319E90A64008C108A11332808303F
:1002900083169B009C131C141A088312EB00073072
:1002A00083169B009C131C141A088312EC006B0825
:1002B000D2006C08D1000230A000A00B5D2960299B
:1002C000000083169B019C131C141A088312E30080
:1002D0000230A000A00B6A296D29000001308316AE
:1002E0009B009C131C141A088312D8000230A00033
:1002F000A00B78297B290000023083169B009C13F9
:100300001C141A088312D6000230A000A00B862904
:1003100089290000033083169B009C131C141A08C3
:100320008312D7000230A000A00B94299729000067
:10033000043083169B009C131C141A088312DA01E4
:10034000D9000230A000A00BA329A6290000053087
:1003500083169B009C131C141A088312DB000230C6
:10036000A000A00BB129B4290000063083169B0021
:100370009C131C141A088312E7000230A000A00B83
:10038000BF29C2290000193083169B009C131C143E
:100390001A088312DC000230A000A00BCD29D0295E
:1003A00000001A3083169B009C131C141A08831239
:1003B000DD000230A000A00BDB29DE2900001B308D
:1003C00083169B009C131C141A088312DE00023053
:1003D000A000A00BE929EC2900001C3083169B002B
:1003E0009C131C141A088312DF000230A000A00B1B
:1003F000F729FA2900001D3083169B009C131C145A
:100400001A088312E0000230A000A00B052A082A77
:1004100000001E3083169B009C131C141A088312C4
:10042000E1000230A000A00B132A162A00001F30A2
:1004300083169B009C131C141A088312E2000230DE
:10044000A000A00B212A242A0000203083169B0044
:100450009C131C141A088312C90008006D30840014
:1004600000080319412A0130A100A001A00B362A7F
:10047000A10B352A4A30A000A00B3C2A3F2A800B52
:10048000332A08001030F100A001A301EE0CED0C9E
:10049000031C502A6F08A0070318A30A7008A307BB
:1004A000A30CA00CA20CA10CF10B462A0800A10180
:1004B000A201A001A3017208031D612A710803199A
:1004C0007B2A1030F3000310EF0DF00DA00DA30DEB
:1004D00072082302031D6E2A71082002031C772A6A
:1004E0007108A002031CA3037208A3020314A10D48
:1004F000A20DF30B632A08003208EE003108ED006C
:100500006C08F0006B08EF0042222208EE00210880
:10051000ED002208F0002108EF00F2016430F10044
:1005200057222208BC002108BB00EA01EB08031D8A
:10053000A82AEC08031DA82A8316071183120715A1
:100540006430ED002E228316071183120711E72A6B
:100550006B08643C031DBB2AEC08031DBB2A8316F1
:100560008711831287156430ED002E2283168711C0
:1005700083128711E72AEB08031DC12AEC0803192F
:10058000DC2AEC08031DDC2A6B08633C031CDC2A14
:1005900083168C100711831207156430ED002E228C
:1005A00083160711831207110130EA00E901E801FF
:1005B00083168C14E82A83128316071183120715F9
:1005C0006430ED002E228316071183120711831663
:1005D00083120800F030950583160108C7390838E2
:1005E00081000530831290007030A100063892001F
:1005F000F9308316920083121010831601138312B0
:100600000B168B1683168C10C03083128B04173098
:10061000BD00B313DA010330D9000C30EB00FA301F
:10062000ED002E22EB0B0F2BEA01E901E801BC01E2
:10063000BB01EC011430EB007C222C2E331383160B
:1006400005158312051D282B05108316051083122E
:100650001930A000A00B2A2B2D2B000083160515A6
:100660008312051D392B05148316051083123317C9
:10067000702B6030A000A00B3B2B000083160515EB
:1006800083120519482B0514831605104F2B83126E
:1006900005148316051083123317702B8316193037
:1006A0008312A000A00B522B552B000083160515BA
:1006B00083120519612B0514831605108312331755
:1006C000702B6030A000A00B632B00008316051573
:1006D00083120519702B0514831605108312331726
:1006E0000800051483160510640005308312ED0020
:1006F000A330EE001230EE02031C8C2B6E3084000F
:10070000FC3080050310800C800C000803198C2B32
:100710008A2B0000800B892BED0B782B08006C0DC9
:10072000C000C00DC00DF830C0053D08533C031893
:10073000952B0B138B138B1B9A2B1E23BE0140088A
:100740003E020318F02B0314C10DC20DC30D031C90
:10075000AB2B1E23EC2B3313051483160510193015
:100760008312A000A00BB22BB52B00008316051539
:1007700083120519BD2B3317EC2B6030A000A00BA2
:10078000BF2B0000831605158312051DCC2B051009
:1007900083160510D32B83120514831605108312BC
:1007A0003317EC2B831619308312A000A00BD62B25
:1007B000D92B0000831605158312051DE12B331775
:1007C000EC2B6030A000A00BE32B00008316051576
:1007D0008312051DEC2B3317331BF42BBE0A9F2B02
:1007E000712371237123712305148316051083125D
:1007F000BD018B10C0308B048B160800C6014C085D
:10080000CA3A0319282C013A03193D2C073A031957
:10081000442C263A03194A2C0D3A0319652CEE3A5A
:1008200003198D2C2B3A0319502D013A0319742DFD
:10083000073A0319792D013A0319A02D033A031938
:10084000A92D013A0319B82D163A0319C62DCF2D3B
:100850004D08570203182F2C5708BA00382C560899
:100860004D020318362C5608BA00382C4D08BA0031
:10087000EC013A08EB007C22D12D6430BA00EC0187
:100880003A08EB007C22D12DBA01EC013A08EB00CA
:100890007C22D12D4D08103C031C602C4D08C50056
:1008A00009304507EB006B0883169B009C131C1452
:1008B0001A088312BA003A085602031C602CBA01C7
:1008C000EC013A08EB007C22D12D4D08103C031CB2
:1008D0008C2C0B138B138B1B6A2C09304D07EB00F0
:1008E0000B08A0008B136B0883169B0083123A0839
:1008F00083169A009C131C1555309D00AA309D004C
:100900009C149C18812C1C11831220088B04882CA9
:10091000892C0000C0308B04D12D083083169B0039
:100920009C131C141A088312EB00073083169B00DB
:100930009C131C141A088312EC006B08D2006C087C
:10094000D1004D080F39D3004D0810390319AC2CD4
:10095000103A0319002D4F2DA3010130A2005308B6
:10096000A0000319B82C0310A20DA30DA00BB32CEB
:100970002208FF3AA000FF30A3062008D105230873
:10098000D2055108EB000B08A0008B13073083162B
:100990009B008312510883169A009C131C15553036
:1009A0009D00AA309D009C149C18D42C1C1183120D
:1009B00020088B040230A000A00BDC2CDF2C0000F0
:1009C0005208EB000B08A0008B13083083169B0025
:1009D0008312520883169A009C131C1555309D00F3
:1009E000AA309D009C149C18F32C1C118312200823
:1009F0008B040230A000A00BFB2CFE2C00004F2D1E
:100A0000A3010130A2005308A00003190C2D03100C
:100A1000A20DA30DA00B072D2208D1042308D20498
:100A20005108EB000B08A0008B13073083169B00C6
:100A30008312510883169A009C131C1555309D0093
:100A4000AA309D009C149C18232D1C118312200891
:100A50008B040230A000A00B2B2D2E2D000052087D
:100A6000EB000B08A0008B13083083169B00831249
:100A7000520883169A009C131C1555309D00AA300D
:100A80009D009C149C18422D1C11831220088B047D
:100A90000230A000A00B4A2D4D2D00004F2DD12D6E
:100AA0004D083F3C0318732D4D08E7000B08A000CC
:100AB0008B13063083169B008312670883169A00F7
:100AC0009C131C1555309D00AA309D009C149C1849
:100AD000672D1C11831220088B040230A000A00B8C
:100AE0006F2D722D0000D12D4D08E4000130E6007D
:100AF000D12D4D08E500660B9E2D6508203C031C9A
:100B00009E2DE6010B08A0008B13650883169B0041
:100B10008312640883169A009C131C1555309D009F
:100B2000AA309D009C149C18932D1C118312200840
:100B30008B040630A000A00B9B2D00004721D12D77
:100B40006708C3006408C2000230EB00EC008F238A
:100B5000D12D4D08E5006508203C031CB72D650824
:100B600083169B009C131C141A088312E400D12DD9
:100B70006708C30083169B019C131C141A08831278
:100B8000C2000230EB00EC008F23D12D6708C300B8
:100B90000330C2000230EB00EC008F23D12D013076
:100BA000C600C608031DEA2D0B08A0008B13831690
:100BB0009B0183123A0883169A009C131C1555302A
:100BC0009D00AA309D009C149C18E42D1C118312DA
:100BD00020088B040230ED002E22C7010800030814
:100BE0001F398300613083168F000F088312B20112
:100BF0000A30B100BA01BC01BB010430BF000130B2
:100C0000C800D630C9000130D0002C30CF00D4014C
:100C1000D5014830E700E901E801EA011F1300307F
:100C20008316910083129A0107309900AC011814C1
:100C3000113098000A30A000810181308400000842
:100C4000F0390738800064000008F739A019F0393E
:100C5000200480004721EA2A083083169B009C1359
:100C60001C141A088312EB00073083169B009C1398
:100C70001C141A088312EC006B08D2006C08D10017
:100C800083169B019C131C141A088312E300DA01DB
:100C90000330D9006400B31F7C2E4B0F512EFE236E
:100CA0007B2E67084B02031D5A2E4B083F3C031C4A
:100CB000FE237B2E49084B02031D602EFE237B2E54
:100CC0004B08BF3C03187B2E4B08D03C031C7B2EEB
:100CD0004B080F39D3005208A3005108A200530853
:100CE000A0000319782E0310A30CA20CA00B732EE6
:100CF00022082218FE23B3136A0BB12E3208EE002D
:100D00003108ED00F0016430EF0042222208EC00CF
:100D10002108EB006C08F0006B08EF00F2010630D0
:100D2000F10057222208A30023086902031CB12EF8
:100D3000031D9E2E21086802031CB12E83168C1001
:100D40008711831287156430ED002E2283168711D8
:100D500083128711E901E80183168C140230831293
:100D6000EA006A08023C031DE42E3C08EE003B0842
:100D7000ED00F0016430EF0042222208EC0021086F
:100D8000EB006C08F0006B08EF00F2010630F10098
:100D900057222208A30023086902031CE42E031D26
:100DA000D52E21086802031CE42E83168C108711AF
:100DB000831287156430ED002E228316871183126B
:0C0DC0008711E901E801EA014A2E6300F6
:104200006400320000006400050006004800010060
:08421000000006000700080091
:02424000D600A6
:02400E00CC33B1
:00000001FF
;PIC16F684
;CRC=62C6  CREATED="10-Aug-21 23:25"
