:1000000002308A00A02A0000FF00030E8301A10035
:100010007F08A0000A08A7008A01A00E0408A20019
:100020007708A3007808A4007908A5007A08A6003C
:10003000831383128B1E1E280B1949290B1E22289D
:100040008B184E288C308400801E28288C1A812919
:100050008C308400001C2E280C1887288C308400DB
:10006000001D34280C197E29220884002308F7007B
:100070002408F8002508F9002608FA0027088A0055
:10008000210E8300FF0E7F0E09000A108A100A114C
:1000900082077E347E347E347E34003483168511AC
:1000A000831285110B128B12B60183160C14853046
:1000B000831290008E01FC308F00B7308E00C50196
:1000C0000130AC00BB01BC01BD01CA01CC01CB01B8
:1000D000A9018B108A1134280130C9002F0B752813
:1000E0003C08C6003B08C8007E28AF08031D7E28D8
:1000F0003D08C6003C08C8003B08C70090018B10B3
:100100000B1683160C1083128B16B7010800FE0124
:100110001430FD00AD012C0BCC2883168511831201
:100120008515831606148312AA010618AA0A3A1125
:100130002A183A15AC013A1DB3283A1DB228831685
:10014000061483123A1106183A15FD08031DAB2850
:10015000FE080319B0287D080319FE03FD03B1282A
:100160003A119D28C4283A19C4288316061483120C
:100170003A1106183A157D080319FE03FD0BC32832
:10018000FE0803193A15B328853090008E01FF3020
:100190008F0069308E0044298316851183128511E2
:1001A000831606148312AB010618AB0A0130AC00AB
:1001B000853090008E01FE308F00A1308E00AD01A1
:1001C000A90ACA01CB0129081A3C031C3E29AA0826
:1001D000031DF1282B0BF1280314BB0DBC0DBD0D25
:1001E0003D292A0BFB28AB08031DFB280310BB0D80
:1001F000BC0DBD0D3D292A0B37292B0B37292908AA
:10020000113A03190D29033A03190F290B3A03195F
:100210001F29033A031921293029C50A3629C50A9D
:100220004508023C031D1C290130AF006C20013041
:10023000CA00CC01CB011E290130AD003629C50A08
:100240003629C50A4508023C031D2D29AF016C2043
:10025000CA010130CC00CB012F290130AD00362975
:100260000130AD0090010B168B16B7013D2901300E
:10027000AD00B70190010B168B1644290130AE007A
:10028000B70190010B168B160030F8000C108A1184
:100290003428D90803194E29D90375297508033C58
:1002A000031875290130F600F4017408083C031C9A
:1002B000742960307407F800FA010318FA0A780804
:1002C0008316A7007A08A8006A3074078400831395
:1002D0000008A90027088400831328188317290819
:1002E0008000F40A83125529F5013708173C0318DA
:1002F000B70A0130F8000B118A1134280C118A1149
:1003000034283230D9008C1E83291808A8001A0816
:10031000F800A81C8D29181218167808FB007B0815
:100320002A3C031D9B29F5016A307507840083135D
:100330007B088000A8297508073C031CA729F50A3B
:100340006A307507840083137B088000A829F501B3
:100350008C128A1134280C1EAB29831623088312B1
:10036000990008003A10831606148312061CBC2953
:10037000051183160511831264001930F700F70B7D
:10038000BF29C229831606148312061CCD29051520
:100390008316051183123A14062A64005F30F700B1
:1003A000F70BD029D32900008316061483120618F0
:1003B000DE29051583160511E52983120515831617
:1003C000051183123A14062A831664001930F700C7
:1003D000F70BE829EB29061483120618F5290515F1
:1003E0008316051183123A14062A64005F30F70061
:1003F000F70BF829FB290000831606148312061850
:10040000062A05158316051183123A1408000515EE
:100410008316051164000430A500CC30A60012300C
:10042000A602031C222AA63084008313FC30800518
:100430000310800C800C00080319222A202A640073
:10044000800B1F2AA50B0D2A831208008316240D8A
:100450008312C100C10DC10DF830C1050C308316E7
:10046000230783123702031C2E2A0B138B138B1BBB
:10047000362AB221C2014108420203188C2A031411
:10048000BE0DBF0DC00D031C472AB221882A3A10A9
:1004900005158316051164001930F700F70B4E2A75
:1004A000512A061483120618572A3A14882A64001F
:1004B0005F30F700F70B5A2A5D2A000083160614F6
:1004C0008312061C682A0511831605116F2A8312F0
:1004D00005158316051183123A14882A83166400C1
:1004E0001930F700F70B722A752A06148312061CBE
:1004F0007B2A3A14882A64005F30F700F70B7E2AC3
:10050000812A0000831606148312061C882A3A14D6
:100510003A18902AC20A3B2A0722072207220722FA
:100520000515831605118312B7018B10A901BA14A2
:10053000C0308B048B1600303A180130F8000800E8
:1005400003081F39830083168E158312A801193002
:1005500083169900A6309800903083129800C90144
:10056000BA101030CE000230B800DF01F501F601FC
:10057000FC010130FE002C30FD008316A00101308B
:10058000A100073083129F0083138316A301A401E7
:100590006A308400831323088407240883124520CB
:1005A000800000380319D92A8316A40AA30AC82A8E
:1005B00083121030CE0007309F0083160508850097
:1005C00064000230F700F70BE32AE62A83121F08C3
:1005D0000C1383169F010108C73908388100853044
:1005E000831290000030F8009200003083169200D1
:1005F000011383128B1183160C120C108C100C1328
:100600008C130C1183128B1683168C1683120B1607
:100610000B138B138B1B092B073083169B009C132A
:100620001C141A088312B900C0308B046430D9003E
:10063000DA01490B4A2BAF08031D332B40308316D8
:10064000A3008312AB2148088316A3008312AB21B9
:1006500046088316A3008312AB2147088316A30024
:100660008312AB21492B2F0B492B40308316A3005B
:100670008312AB2148088316A3008312AB214608DE
:100680008316A3008312AB2123308316A3008312A9
:10069000AB21C901760B982B60082A3C031D972BD0
:1006A0006108253A0319582B013A0319762B952B2B
:1006B000FC016408BE006208BF006308C00001308E
:1006C0008316A3000330A400831226227808831621
:1006D000A000FC0A7C08043C031C732B200B732B2A
:1006E00083125F2B8316FC01F601962BFC01630835
:1006F000BE006208BF006308C00001308316A3007B
:100700000330A4008312262278088316A000FC0A76
:100710007C08043C031C912B200B912B83127D2B16
:100720008316FC01F601962B831283168312F601C1
:100730002D0BA02B65308316A3008312AB21AD01D6
:04074000192B63000E
:02400E00701F21
:00000001FF
;PIC16F628A
;CRC=8B51  CREATED="08-Jun-21 13:25"
