:1000000005308A00BE2D0000831A0A28A400030EC2
:10001000A5000F288312A400030EA500A5140A084A
:10002000AB008A018313A40E0408A6002008A700D1
:100030002108A8002208A9002308AA0083128B1E09
:1000400023280B1924290B1E27288B1840288C30B5
:100050008400001C2D280C1874282608840027080A
:10006000A0002808A1002908A2002A08A3002B0844
:100070008A00250E83008312240EA518831609001A
:1000800064000B128B12B601053090008E01FC301B
:100090008F00B7308E0083160C148312C801311400
:1000A000B301B401B501B701B201BB018B108A11D4
:1000B0002D286400B117420B62283408C9003308A8
:1000C000CA006B28C208031D6B283508C900340814
:1000D000CA003308CB0010108B100B1683160C10BF
:1000E00083128B16BB010800CE011430CD003112F3
:1000F000311CB528831605158312B1100519B114EA
:100100003111B11831153110311D9C28311D9B283A
:10011000831605158312311105193115CD08031DFC
:100120009428CE08031999284D080319CE03CD034E
:100130009A2831118628AD283119AD288316051566
:1001400083123111051931154D080319CE03CD0B5A
:10015000AC28CE08031931159C28053090008E017B
:10016000FF308F0069308E001F298316051583121A
:10017000B1110519B1153114053090008E01FE3012
:100180008F00A1308E0064003112B20A4C10CC10E6
:1001900032081A3C031C1A29B118D528B11DD528DC
:1001A0000314B30DB40DB50D1929B11CDE28B11916
:1001B000DE280310B30DB40DB50D1929B11C142997
:1001C000B11D14293208113A0319F028033A031912
:1001D000F2280B3A03190029033A031902290F29BF
:1001E000C80A1329C80A4808023C031DFE2801302A
:1001F000C20059204C144C11CC10FF283116132981
:10020000C80A1329C80A4808023C031D0D29C20167
:1002100059204C104C15CC100E29311613293116CB
:1002200010100B16BB0119293116BB0110100B164B
:100230008B161F29B116BB0110100B168B16003040
:10024000A1000C108A112D286400BD0B2D2904304B
:10025000BD003B08183C0318BB0A0B118A112D285E
:10026000083083169B009C131C141A088312E600A6
:10027000073083169B009C131C141A088312E70096
:100280006608D0006708CF000230A000A00B462906
:100290004929000083169B019C131C141A08831221
:1002A000E1000230A000A00B5329562900000130C4
:1002B00083169B009C131C141A088312D60002306C
:1002C000A000A00B612964290000023083169B0066
:1002D0009C131C141A088312D4000230A000A00B37
:1002E0006F2972290000033083169B009C131C1495
:1002F0001A088312D5000230A000A00B7D298029A6
:100300000000043083169B009C131C141A088312EF
:10031000D801D7000230A000A00B8C298F29000043
:10032000053083169B009C131C141A088312D900F5
:100330000230A000A00B9A299D29000006308316E8
:100340009B009C131C141A088312E5000230A000C5
:10035000A00BA829AB290000193083169B009C1321
:100360001C141A088312DA000230A000A00BB62970
:10037000B92900001A3083169B009C131C141A081C
:100380008312DB000230A000A00BC429C7290000A3
:100390001B3083169B009C131C141A088312DC006C
:1003A0000230A000A00BD229D52900001C308316F2
:1003B0009B009C131C141A088312DD000230A0005D
:1003C000A00BE029E32900001D3083169B009C133D
:1003D0001C141A088312DE000230A000A00BEE29C4
:1003E000F12900001E3083169B009C131C141A0870
:1003F0008312DF000230A000A00BFC29FF290000BF
:100400001F3083169B009C131C141A088312E000F3
:100410000230A000A00B0A2A0D2A0000203083160B
:100420009B009C131C141A088312C7000800F030AC
:10043000950583160108C7390838810005308312F5
:10044000900010108316011383120B168B1683165F
:100450008C10C03083128B041730BB00B113D8014D
:100460000330D700E22D1030EE00A001A301EB0C09
:10047000EA0C031C412A6C08A0070318A30A6D08A4
:10048000A307A30CA00CA20CA10CEE0B372A0800AA
:1004900069308400000803195B2A0130A100A00123
:1004A000A00B502AA10B4F2A4A30A000A00B562ABD
:1004B000592A800B4D2A0800D8010230D70067085E
:1004C000EB006608EA005808ED005708EC003322FC
:1004D0002208E9002108E8002208EB002108EA00D0
:1004E000ED010A30EC0033222208BA002108B900DD
:1004F000E608031D8A2AE708031D8A2A83160711C6
:10050000831207156430E90048228316071183120D
:100510000711EB2A6608643C031D9D2AE708031DAA
:100520009D2A83168711831287156430E9004822BB
:100530008316871183128711EB2AE608031DA32A6D
:10054000E7080319E02AE708031DE02A6608633C70
:10055000031CE02A83160711831207156430E90093
:10056000482283160711831207110C30E800FA3075
:10057000E9004822E80BB72A8316871183128715F2
:100580006430E900482283168711831287113A08E4
:10059000E800E80AE8030319D12AFF30E9004822FD
:1005A000CA2A3908E9004822831687118312871561
:1005B0006430E90048228316871183128711EB2AE1
:1005C00083160711831207156430E9004822831649
:1005D00007118312071108003113831605158312C2
:1005E000051DF62A05108316051083121930A00088
:1005F000A00BF82AFB2A0000831605158312051D9F
:10060000072B051483160510831231173E2B60301B
:10061000A000A00B092B00008316051583120519F5
:10062000162B0514831605101D2B83120514831633
:100630000510831231173E2B831619308312A00048
:10064000A00B202B232B0000831605158312051900
:100650002F2B051483160510831231173E2B6030A3
:10066000A000A00B312B000083160515831205197D
:100670003E2B05148316051083123117080005144C
:1006800083160510640005308312E800A330E900EA
:100690001230E902031C5A2B69308400FC308005BB
:1006A0000310800C800C000803195A2B582B0000F3
:1006B000800B572BE80B462B0800670DBE00BE0DC4
:1006C000BE0DF830BE050C3066073B02031C632BE1
:1006D0000B138B138B1B692BEC22BC013E083C02D5
:1006E0000318BF2B0314BF0DC00DC10D031C7A2BC3
:1006F000EC22BB2B3113051483160510193083121D
:10070000A000A00B812B842B0000831605158312FB
:1007100005198C2B3117BB2B6030A000A00B8E2B42
:100720000000831605158312051D9B2B05108316EB
:100730000510A22B8312051483160510831231179E
:10074000BB2B831619308312A000A00BA52BA82B5E
:100750000000831605158312051DB02B3117BB2B26
:100760006030A000A00BB22B000083160515831289
:10077000051DBB2B3117311BC32BBC0A6E2B3F232E
:100780003F233F233F230514831605108312BB012B
:100790008B10C0308B048B160800C4014A082A3A1B
:1007A0000319F72B023A03190C2C013A0319132CE5
:1007B000C33A0319192C0D3A0319342CEE3A0319D4
:1007C0005C2C2B3A03191F2D013A0319432D073ACC
:1007D0000319482D013A03196F2D033A0319782D97
:1007E000013A0319872D163A0319952D9E2D4B08B2
:1007F00055020318FE2B5508B800072C54084B026D
:100800000318052C5408B800072C4B08B800E70162
:100810003808E6005C22A02D6430B800E7013808F3
:10082000E6005C22A02DB801E7013808E6005C2252
:10083000A02D4B08103C031C2F2C4B08C300093083
:100840004307E600660883169B009C131C141A08D5
:100850008312B80038085402031C2F2CB801E7019A
:100860003808E6005C22A02D4B08103C031C5B2CD2
:100870000B138B138B1B392C09304B07E6000B082D
:10088000A0008B13660883169B008312380883161A
:100890009A009C131C1555309D00AA309D009C1495
:1008A0009C18502C1C11831220088B04572C582C98
:1008B0000000C0308B04A02D083083169B009C13D1
:1008C0001C141A088312E600073083169B009C1341
:1008D0001C141A088312E7006608D0006708CF00CE
:1008E0004B080F39D1004B08103903197B2C103AF3
:1008F0000319CF2C1E2DA3010130A2005108A00026
:100900000319872C0310A20DA30DA00B822C220823
:10091000FF3AA000FF30A3062008CF052308D0052A
:100920004F08E6000B08A0008B13073083169B00CE
:1009300083124F0883169A009C131C1555309D0096
:10094000AA309D009C149C18A32C1C118312200813
:100950008B040230A000A00BAB2CAE2C0000500882
:10096000E6000B08A0008B13083083169B0083124F
:10097000500883169A009C131C1555309D00AA3010
:100980009D009C149C18C22C1C11831220088B04FF
:100990000230A000A00BCA2CCD2C00001E2DA301FC
:1009A0000130A2005108A0000319DB2C0310A20D96
:1009B000A30DA00BD62C2208CF042308D0044F0887
:1009C000E6000B08A0008B13073083169B008312F0
:1009D0004F0883169A009C131C1555309D00AA30B1
:1009E0009D009C149C18F22C1C11831220088B046F
:1009F0000230A000A00BFA2CFD2C00005008E600ED
:100A00000B08A0008B13083083169B00831250083C
:100A100083169A009C131C1555309D00AA309D002A
:100A20009C149C18112D1C11831220088B04023079
:100A3000A000A00B192D1C2D00001E2DA02D4B0871
:100A40003F3C031C422D4B08E5000B08A0008B1314
:100A5000063083169B008312650883169A009C1348
:100A60001C1555309D00AA309D009C149C18362DF5
:100A70001C11831220088B040230A000A00B3E2D15
:100A8000412D0000A02D4B08E2000130E400A02D14
:100A90004B08E300640B6D2D6308203C031C6D2D97
:100AA000E4010B08A0008B13630883169B008312DC
:100AB000620883169A009C131C1555309D00AA30BD
:100AC0009D009C149C18622D1C11831220088B041D
:100AD0000630A000A00B6A2D00003021A02D650873
:100AE000C1006208C0000230E600E7005D23A02DCF
:100AF0004B08E3006308203C031C862D6308831623
:100B00009B009C131C141A088312E200A02D650898
:100B1000C10083169B019C131C141A088312C00089
:100B20000230E600E7005D23A02D6508C100033018
:100B3000C0000230E600E7005D23A02D0130C400B4
:100B4000C408031DB92D0B08A0008B1383169B014D
:100B50008312380883169A009C131C1555309D008B
:100B6000AA309D009C149C18B32D1C1183122008E0
:100B70008B040230E9004822C501080003081F3930
:100B80008300613083168F000F088312B801BA0109
:100B9000B9010430BD000130C600FF30C70001308C
:100BA000CE002C30CD00D201D3014130E5001F131F
:100BB00000308316910083129A0107309900AC012E
:100BC0003021172A083083169B009C131C141A0826
:100BD0008312E600073083169B009C131C141A082E
:100BE0008312E7006608D0006708CF0083169B01D8
:100BF0009C131C141A088312E100D8010330D7009B
:100C00006400B11F2F2E490F072ECD232E2E65080D
:100C10004902031D0D2ECD232E2E47084902031D28
:100C2000132ECD232E2E4908BF3C03182E2E490823
:100C3000D03C031C2E2E49080F39D1005008A300C8
:100C40004F08A2005108A00003192B2E0310A30C7B
:100C5000A20CA00B262E22082218CD23B113002EA1
:020C600063002F
:104200006400320000006400050006004100010067
:08421000000006000700080091
:02424000FF007D
:02400E00D433A9
:00000001FF
;PIC16F684
;CRC=091B  CREATED="17-Jun-21 12:04"
