:1000000005308A00E02D0000831A0A28A400030EA0
:10001000A5000F288312A400030EA500A5140A084A
:10002000AB008A018313A40E0408A6002008A700D1
:100030002108A8002208A9002308AA0083128B1E09
:1000400023280B1929290B1E27288B1840288C30B0
:100050008400001C2D280C1874282608840027080A
:10006000A0002808A1002908A2002A08A3002B0844
:100070008A00250E83008312240EA518831609001A
:1000800064000B128B12B601053090008E01FC301B
:100090008F00B7308E0083160C148312C801311400
:1000A000B301B401B501B701B201BB018B108A11D4
:1000B0002D286400B117420B62283408C9003308A8
:1000C000CA006B28C208031D6B283508C900340814
:1000D000CA003308CB0010108B100B1683160C10BF
:1000E00083128B16BB010800CE011430CD003112F3
:1000F000311CB528831605158312B1100519B114EA
:100100003111B11831153110311D9C28311D9B283A
:10011000831605158312311105193115CD08031DFC
:100120009428CE08031999284D080319CE03CD034E
:100130009A2831118628AD283119AD288316051566
:1001400083123111051931154D080319CE03CD0B5A
:10015000AC28CE08031931159C28053090008E017B
:10016000FF308F0069308E00242983160515831215
:10017000B1110519B1153114053090008E01FE3012
:100180008F00A1308E0064003112B20A4C10CC10E6
:1001900032081A3C031C1F29B118D528B11DD528D7
:1001A0000314B30DB40DB50D1E29B11CDE28B11911
:1001B000DE280310B30DB40DB50D1E29B11C19298D
:1001C000B11D19293208113A0319F028033A03190D
:1001D000F2280B3A03190229033A031904291329B7
:1001E000C80A1829C80A4808023C031DFE28013025
:1001F000C20059204C144C11CC10012931160B1699
:100200008B161829C80A1829C80A4808023C031D79
:100210000F29C20159204C104C15CC10122931164F
:100220000B168B161829311610100B168B16BB01E6
:100230001E293116BB0110100B168B162429B1167E
:10024000BB0110100B168B160030A1000C108A1188
:100250002D286400BD0B32290430BD003B08183C3A
:100260000318BB0A0B118A112D28083083169B0036
:100270009C131C141A088312E600073083169B0097
:100280009C131C141A088312E7006608D000670844
:10029000CF000230A000A00B4B294E29000083168E
:1002A0009B019C131C141A088312E1000230A00069
:1002B000A00B58295B290000013083169B009C137A
:1002C0001C141A088312D6000230A000A00B662965
:1002D00069290000023083169B009C131C141A0825
:1002E0008312D4000230A000A00B742977290000EB
:1002F000033083169B009C131C141A088312D5002C
:100300000230A000A00B822985290000043083164A
:100310009B009C131C141A088312D801D7000230CA
:10032000A000A00B912994290000053083169B00A2
:100330009C131C141A088312D9000230A000A00BD1
:100340009F29A2290000063083169B009C131C14D1
:100350001A088312E5000230A000A00BAD29B029D5
:100360000000193083169B009C131C141A0883127A
:10037000DA000230A000A00BBB29BE2900001A3011
:1003800083169B009C131C141A088312DB00023096
:10039000A000A00BC929CC2900001B3083169B00AC
:1003A0009C131C141A088312DC000230A000A00B5E
:1003B000D729DA2900001C3083169B009C131C14DB
:1003C0001A088312DD000230A000A00BE529E829FD
:1003D00000001D3083169B009C131C141A08831206
:1003E000DE000230A000A00BF329F62900001E3029
:1003F00083169B009C131C141A088312DF00023022
:10040000A000A00B012A042A00001F3083169B00C5
:100410009C131C141A088312E0000230A000A00BE9
:100420000F2A122A0000203083169B009C131C14F4
:100430001A088312C70008006930840000080319F5
:100440002F2A0130A100A001A00B242AA10B232AEE
:100450004A30A000A00B2A2A2D2A800B212A08004E
:10046000F030950583160108C7390838810005303A
:100470008312900010108316011383120B168B1633
:1004800083168C10C03083128B041730BB00B1135D
:10049000D8010330D7000830E600FA30E9001C220A
:1004A000E60B4D2A83160711831207150430E60068
:1004B000FA30E9001C22E60B582A83160711831232
:1004C00007110430E600FA30E9001C22E60B632A2B
:1004D000042E1030EE00A001A301EB0CEA0C031C6B
:1004E000772A6C08A0070318A30A6D08A307A30CBA
:1004F000A00CA20CA10CEE0B6D2A0800D801023052
:10050000D7006708EB006608EA005808ED005708B6
:10051000EC0069222208E9002108E8002208EB002B
:100520002108EA00ED010A30EC0069222208BA0035
:100530002108B900E608031DAC2AE708031DAC2A10
:1005400083160711831207156430E9001C228316F5
:100550000711831207110D2B6608643C031DBF2A87
:10056000E708031DBF2A831687118312871564309D
:10057000E9001C2283168711831287110D2BE608D0
:10058000031DC52AE7080319022BE708031D022BE8
:100590006608633C031C022B8316071183120715A0
:1005A0006430E9001C2283160711831207110C30F6
:1005B000E800FA30E9001C22E80BD92A83168711DB
:1005C000831287156430E9001C2283168711831279
:1005D00087113A08E800E80AE8030319F32AFF3014
:1005E000E9001C22EC2A3908E9001C228316871135
:1005F000831287156430E9001C2283168711831249
:1006000087110D2B83160711831207156430E9003B
:100610001C22831607118312071108003113831659
:1006200005158312051D182B05108316051083125E
:100630001930A000A00B1A2B1D2B000083160515E6
:100640008312051D292B05148316051083123117FB
:10065000602B6030A000A00B2B2B0000831605152B
:1006600083120519382B0514831605103F2B8312AE
:1006700005148316051083123117602B8316193069
:100680008312A000A00B422B452B000083160515FA
:1006900083120519512B0514831605108312311787
:1006A000602B6030A000A00B532B000083160515B3
:1006B00083120519602B0514831605108312311758
:1006C0000800051483160510640005308312E80045
:1006D000A330E9001230E902031C7C2B693084004E
:1006E000FC3080050310800C800C000803197C2B63
:1006F0007A2B0000800B792BE80B682B0800670D24
:10070000BE00BE0DBE0DF830BE050C3066073B02C4
:10071000031C852B0B138B138B1B8B2B0E23BC0104
:100720003E083C020318E12B0314BF0DC00DC10DA0
:10073000031C9C2B0E23DD2B31130514831605108F
:1007400019308312A000A00BA32BA62B0000831648
:10075000051583120519AE2B3117DD2B6030A00073
:10076000A00BB02B0000831605158312051DBD2BB1
:10077000051083160510C42B83120514831605106B
:1007800083123117DD2B831619308312A000A00BC2
:10079000C72BCA2B0000831605158312051DD22B0B
:1007A0003117DD2B6030A000A00BD42B0000831686
:1007B00005158312051DDD2B3117311BE52BBC0AF6
:1007C000902B612361236123612305148316051097
:1007D0008312BB018B10C0308B048B160800C40140
:1007E0004A08CA3A0319192C013A03192E2C073A60
:1007F0000319352C263A03193B2C0D3A0319562CB4
:10080000EE3A03197E2C2B3A0319412D013A0319B4
:10081000652D073A03196A2D013A0319912D033A00
:1008200003199A2D013A0319A92D163A0319B72D68
:10083000C02D4B0855020318202C5508B800292C50
:1008400054084B020318272C5408B800292C4B08D5
:10085000B800E7013808E6007E22C22D6430B800F7
:10086000E7013808E6007E22C22DB801E70138080A
:10087000E6007E22C22D4B08103C031C512C4B0875
:10088000C30009304307E600660883169B009C13EB
:100890001C141A088312B80038085402031C512C87
:1008A000B801E7013808E6007E22C22D4B08103C53
:1008B000031C7D2C0B138B138B1B5B2C09304B07FC
:1008C000E6000B08A0008B13660883169B008312BA
:1008D000380883169A009C131C1555309D00AA30C9
:1008E0009D009C149C18722C1C11831220088B04F0
:1008F000792C7A2C0000C0308B04C22D083083166E
:100900009B009C131C141A088312E6000730831600
:100910009B009C131C141A088312E7006608D00081
:100920006708CF004B080F39D1004B081039031965
:100930009D2C103A0319F12C402DA3010130A20087
:100940005108A0000319A92C0310A20DA30DA00BA0
:10095000A42C2208FF3AA000FF30A3062008CF05F0
:100960002308D0054F08E6000B08A0008B130730C2
:1009700083169B0083124F0883169A009C131C1544
:1009800055309D00AA309D009C149C18C52C1C114C
:10099000831220088B040230A000A00BCD2CD02C99
:1009A00000005008E6000B08A0008B1308308316E7
:1009B0009B008312500883169A009C131C15553017
:1009C0009D00AA309D009C149C18E42C1C118312DD
:1009D00020088B040230A000A00BEC2CEF2C0000B0
:1009E000402DA3010130A2005108A0000319FD2CE5
:1009F0000310A20DA30DA00BF82C2208CF0423088E
:100A0000D0044F08E6000B08A0008B1307308316B4
:100A10009B0083124F0883169A009C131C155530B7
:100A20009D00AA309D009C149C18142D1C1183124B
:100A300020088B040230A000A00B1C2D1F2D0000ED
:100A40005008E6000B08A0008B13083083169B00AB
:100A50008312500883169A009C131C1555309D0074
:100A6000AA309D009C149C18332D1C118312200861
:100A70008B040230A000A00B3B2D3E2D0000402D2A
:100A8000C22D4B083F3C031C642D4B08E5000B08AE
:100A9000A0008B13063083169B0083126508831613
:100AA0009A009C131C1555309D00AA309D009C1483
:100AB0009C18582D1C11831220088B040230A000B2
:100AC000A00B602D632D0000C22D4B08E200013009
:100AD000E400C22D4B08E300640B8F2D6308203C1B
:100AE000031C8F2DE4010B08A0008B1363088316F1
:100AF0009B008312620883169A009C131C155530C4
:100B00009D00AA309D009C149C18842D1C118312FA
:100B100020088B040630A000A00B8C2D000035218E
:100B2000C22D6508C1006208C0000230E600E7007F
:100B30007F23C22D4B08E3006308203C031CA82D33
:100B4000630883169B009C131C141A088312E2008E
:100B5000C22D6508C10083169B019C131C141A0842
:100B60008312C0000230E600E7007F23C22D650833
:100B7000C1000330C0000230E600E7007F23C22D31
:100B80000130C400C408031DDB2D0B08A0008B132B
:100B900083169B018312380883169A009C131C1538
:100BA00055309D00AA309D009C149C18D52D1C1119
:100BB000831220088B040230E9001C22C5010800C2
:100BC00003081F398300613083168F000F088312DA
:100BD000B801BA01B9010430BD000130C600D630F9
:100BE000C7000130CE002C30CD00D201D3014830F7
:100BF000E5001F1300308316910083129A0107301D
:100C00009900AC013521302A083083169B009C13D3
:100C10001C141A088312E600073083169B009C13ED
:100C20001C141A088312E7006608D0006708CF007A
:100C300083169B019C131C141A088312E100D8012F
:100C40000330D7006400B11F512E490F292EEF2326
:100C5000502E65084902031D2F2EEF23502E470802
:100C60004902031D352EEF23502E4908BF3C0318BF
:100C7000502E4908D03C031C502E49080F39D10092
:100C80005008A3004F08A2005108A00003194D2EE0
:100C90000310A30CA20CA00B482E22082218EF234D
:060CA000B113222E6300D7
:104200006400320000006400050006004800010060
:08421000000006000700080091
:02424000D600A6
:02400E00D433A9
:00000001FF
;PIC16F684
;CRC=A046  CREATED="10-Aug-21 16:59"
