:1000000005308A003E2D0000FF00030E8301A10091
:100010007F08A0000A08A7008A01A00E0408A20019
:100020007708A3007808A4007908A5007A08A6003C
:10003000831383128B1E1E280B191D290B1E2228C9
:100040008B1839288C308400001C28280C186D2847
:10005000220884002308F7002408F8002508F90086
:100060002608FA0027088A00210E8300FF0E7F0E63
:10007000090064000B128B12B401853090008E01D0
:10008000FC308F00B7308E0083160C148312C6012B
:100090002F14B101B201B301B501B001B9018B1048
:1000A0008A1128286400AF17400B5B283208C7006C
:1000B0003108C8006428C008031D64283308C7003D
:1000C0003208C8003108C90010108B100B168316B7
:1000D0000C1083128B16B9010800CC011430CB0030
:1000E0002F122F1CAE28831606148312AF10061889
:1000F000AF142F11AF182F152F102F1D95282F1D5E
:1001000094288316061483122F1106182F15CB0876
:10011000031D8D28CC08031992284B080319CC0322
:10012000CB0393282F117F28A6282F19A6288316E2
:10013000061483122F1106182F154B080319CC0330
:10014000CB0BA528CC0803192F15952885309000D6
:100150008E01FF308F0069308E0018298316061437
:100160008312AF110618AF152F14853090008E0141
:10017000FE308F00A1308E0064002F12B00A4A10AA
:10018000CA1030081A3C031C1329AF18CE28AF1D23
:10019000CE280314B10DB20DB30D1229AF1CD72810
:1001A000AF19D7280310B10DB20DB30D1229AF1C32
:1001B0000D29AF1D0D293008113A0319E928033A1A
:1001C0000319EB280B3A0319F928033A0319FB2802
:1001D0000829C60A0C29C60A4608023C031DF7284E
:1001E0000130C00052204A144A11CA10F8282F16B4
:1001F0000C29C60A0C29C60A4608023C031D06291A
:10020000C00152204A104A15CA1007292F160C297E
:100210002F1610100B16B90112292F16B901101044
:100220000B168B161829AF16B90110100B168B166A
:100230000030F8000C108A1128286400BB0B262916
:100240000430BB003908183C0318B90A0B118A1195
:100250002828083083169B009C131C141A0883124C
:10026000E400073083169B009C131C141A088312A9
:10027000E5006408CE006508CD000230F700F70BFA
:100280003F294229000083169B019C131C141A0865
:100290008312DF000230F700F70B4C294F290000D2
:1002A000013083169B009C131C141A088312D4007F
:1002B0000230F700F70B5A295D290000023083163F
:1002C0009B009C131C141A088312D2000230F70002
:1002D000F70B68296B290000033083169B009C13E1
:1002E0001C141A088312D3000230F700F70B76298A
:1002F00079290000043083169B009C131C141A08F3
:100300008312D601D5000230F700F70B8529882922
:100310000000053083169B009C131C141A088312DE
:10032000D7000230F700F70B93299629000006301A
:1003300083169B009C131C141A088312E3000230DE
:10034000F700F70BA129A4290000193083169B00A0
:100350009C131C141A088312D8000230F700F70B04
:10036000AF29B22900001A3083169B009C131C147D
:100370001A088312D9000230F700F70BBD29C029F3
:1003800000001B3083169B009C131C141A08831258
:10039000DA000230F700F70BCB29CE2900001C3021
:1003A00083169B009C131C141A088312DB00023076
:1003B000F700F70BD929DC2900001D3083169B00BC
:1003C0009C131C141A088312DC000230F700F70B90
:1003D000E729EA2900001E3083169B009C131C1499
:1003E0001A088312DD000230F700F70BF529F8290F
:1003F00000001F3083169B009C131C141A088312E4
:10040000DE000230F700F70B032A062A0000203036
:1004100083169B009C131C141A088312C500080045
:10042000F030970583160108C739083881008530F8
:100430008312900010108316011383120B168B1673
:1004400083168C10C03083128B041730B900AF13A1
:10045000D6010330D500652D1030EC00F701FA010C
:10046000E90CE80C031C3A2A6A08F7070318FA0A91
:100470006B08FA07FA0CF70CF90CF80CEC0B302AA5
:100480000800D6010230D5006508E9006408E800DC
:100490005608EB005508EA002C227908E700780896
:1004A000E6007908E9007808E800EB010A30EA0084
:1004B0002C227908B8007808B70008002F1383169B
:1004C00006148312061C682A05118316051183126F
:1004D0001930F700F70B6A2A6D2A000083160614FC
:1004E0008312061C792A05158316051183122F170E
:1004F000AE2A6030F700F70B7B2A00008316061443
:1005000083120618882A0515831605118F2A83126F
:1005100005158316051183122F17AE2A831619307D
:10052000F700F70B912A942A00000614831206188C
:100530009F2A05158316051183122F17AE2A6030E6
:10054000F700F70BA12A0000831606148312061881
:10055000AE2A05158316051183122F1708000515FD
:1005600083160511640005308312E600A330E7000E
:100570001230E702031CCB2A673084008313FC305F
:1005800080050310800C800C00080319CB2AC92AAF
:100590000000800BC82AE60BB62A0800650DBC00D7
:1005A000BC0DBC0DF830BC050C3064073902031CCF
:1005B000D42A0B138B138B1BDA2A5E22BA013C0858
:1005C0003A0203182C2B0314BD0DBE0DBF0D031CE6
:1005D000EB2A5E22282B2F130515831605111930DF
:1005E000F700F70BF12AF42A00000614831206180C
:1005F000FB2A2F17282B6030F700F70BFD2A00008D
:10060000831606148312061C0A2B05118316051186
:10061000112B831205158316051183122F17282B12
:1006200083161930F700F70B132B162B0000061456
:100630008312061C1D2B2F17282B6030F700F70B99
:100640001F2B0000831606148312061C282B2F175D
:100650002F1B302BBA0ADF2AAF22AF22AF22AF22E4
:100660000515831605118312B9018B10C0308B0458
:100670008B160800C20148082A3A0319642B023A73
:100680000319792B013A0319802BC33A0319862BDE
:100690000D3A0319A12BEE3A0319C92B2B3A031972
:1006A0008C2C013A0319B02C073A0319B52C013AE6
:1006B0000319DC2C033A0319E52C013A0319F42C35
:1006C000163A0319022D0B2D4908530203186B2B00
:1006D0005308B600742B520849020318722B5208B3
:1006E000B600742B4908B600E5013608E400412243
:1006F0000D2D6430B600E5013608E40041220D2DD1
:10070000B601E5013608E40041220D2D4908103CF0
:10071000031C9C2B4908C10009304107E400640810
:1007200083169B009C131C141A088312B60036080B
:100730005202031C9C2BB601E5013608E40041225D
:100740000D2D4908103C031CC82B0B138B138B1B5E
:10075000A62B09304907E4000B08F7008B13640847
:1007600083169B008312360883169A009C131C156F
:1007700055309D00AA309D009C149C18BD2B1C1167
:10078000770883128B04C42BC52B0000C0308B0468
:100790000D2D083083169B009C131C141A0883121D
:1007A000E400073083169B009C131C141A08831264
:1007B000E5006408CE006508CD0049080F39CF0078
:1007C000490810390319E82B103A03193C2C8B2CDB
:1007D000FA010130F9004F08F7000319F42B031058
:1007E000F90DFA0DF70BEF2B7908FF3AF700FF3000
:1007F000FA067708CD057A08CE054D08E4000B0807
:10080000F7008B13073083169B0083124D08831665
:100810009A009C131C1555309D00AA309D009C1415
:100820009C18102C1C11770883128B040230F700DF
:10083000F70B182C1B2C00004E08E4000B08F700E7
:100840008B13083083169B0083124E0883169A0080
:100850009C131C1555309D00AA309D009C149C18BB
:100860002F2C1C11770883128B040230F700F70B32
:10087000372C3A2C00008B2CFA010130F9004F087C
:10088000F7000319482C0310F90DFA0DF70B432C50
:100890007908CD047A08CE044D08E4000B08F7006F
:1008A0008B13073083169B0083124D0883169A0022
:1008B0009C131C1555309D00AA309D009C149C185B
:1008C0005F2C1C11770883128B040230F700F70BA2
:1008D000672C6A2C00004E08E4000B08F7008B130D
:1008E000083083169B0083124E0883169A009C13CF
:1008F0001C1555309D00AA309D009C149C187E2C20
:100900001C11770883128B040230F700F70B862C3A
:10091000892C00008B2C0D2D49083F3C031CAF2C6B
:100920004908E3000B08F7008B13063083169B0081
:100930008312630883169A009C131C1555309D0082
:10094000AA309D009C149C18A32C1C1177088312BC
:100950008B040230F700F70BAB2CAE2C00000D2DF2
:100960004908E0000130E2000D2D4908E100620B6A
:10097000DA2C6108203C031CDA2CE2010B08F7009A
:100980008B13610883169B008312600883169A00FC
:100990009C131C1555309D00AA309D009C149C187A
:1009A000CF2C1C11770883128B040630F700F70B4D
:1009B000D72C000029210D2D6308BF006008BE0060
:1009C0000230E400E500CE220D2D4908E100610867
:1009D000203C031CF32C610883169B009C131C1401
:1009E0001A088312E0000D2D6308BF0083169B01D7
:1009F0009C131C141A088312BE000230E400E500A8
:100A0000CE220D2D6308BF000330BE000230E4008B
:100A1000E500CE220D2D0130C200C208031D262D97
:100A20000B08F7008B1383169B018312360883167D
:100A30009A009C131C1555309D00AA309D009C14F3
:100A40009C18202D1C11770883128B040230E400BF
:100A5000643084008313000803193C2D0130F80032
:100A6000F701F70B312DF80B302D4A30F700F70B5B
:100A7000372D3A2D800B2E2DC301080003081F3996
:100A8000830083168E158312A801193083169900EE
:100A9000A6309800903083129800B601B801B701D3
:100AA0000430BB000130C400FF30C5000130CC0071
:100AB0002C30CB00D001D1014130E30007309F0042
:100AC0008313A901AA012921102A083083169B004B
:100AD0009C131C141A088312E400073083169B0031
:100AE0009C131C141A088312E5006408CE006508E4
:100AF000CD0083169B019C131C141A088312DF007F
:100B0000D6010330D5006400AF1FB22D470F8A2DE8
:100B10003A23B12D63084702031D902D3A23B12DCE
:100B200045084702031D962D3A23B12D4708BF3CC7
:100B30000318B12D4708D03C031CB12D47080F39CD
:100B4000CF004E08FA004D08F9004F08F7000319CE
:100B5000AE2D0310FA0CF90CF70BA92D79087918B2
:080B60003A23AF13832D63005B
:104200006400320000006400050006004100010067
:08421000000006000700080091
:02424000FF007D
:02400E00741F1D
:00000001FF
;PIC16F628A
;CRC=EF8A  CREATED="12-Jun-21 10:02"
