:1000000005308A00322D0000831A0A28A400030E4E
:10001000A5000F288312A400030EA500A5140A084A
:10002000AB008A018313A40E0408A6002008A700D1
:100030002108A8002208A9002308AA0083128B1E09
:1000400023280B1924290B1E27288B1840288C30B5
:100050008400001C2D280C1874282608840027080A
:10006000A0002808A1002908A2002A08A3002B0844
:100070008A00250E83008312240EA518831609001A
:1000800064000B128B12B601053090008E01FC301B
:100090008F00B7308E0083160C148312C801311400
:1000A000B301B401B501B701B201BB018B108A11D4
:1000B0002D286400B117420B62283408C9003308A8
:1000C000CA006B28C208031D6B283508C900340814
:1000D000CA003308CB0010108B100B1683160C10BF
:1000E00083128B16BB010800CE011430CD003112F3
:1000F000311CB528831605158312B1100519B114EA
:100100003111B11831153110311D9C28311D9B283A
:10011000831605158312311105193115CD08031DFC
:100120009428CE08031999284D080319CE03CD034E
:100130009A2831118628AD283119AD288316051566
:1001400083123111051931154D080319CE03CD0B5A
:10015000AC28CE08031931159C28053090008E017B
:10016000FF308F0069308E001F298316051583121A
:10017000B1110519B1153114053090008E01FE3012
:100180008F00A1308E0064003112B20A4C10CC10E6
:1001900032081A3C031C1A29B118D528B11DD528DC
:1001A0000314B30DB40DB50D1929B11CDE28B11916
:1001B000DE280310B30DB40DB50D1929B11C142997
:1001C000B11D14293208113A0319F028033A031912
:1001D000F2280B3A03190029033A031902290F29BF
:1001E000C80A1329C80A4808023C031DFE2801302A
:1001F000C20059204C144C11CC10FF283116132981
:10020000C80A1329C80A4808023C031D0D29C20167
:1002100059204C104C15CC100E29311613293116CB
:1002200010100B16BB0119293116BB0110100B164B
:100230008B161F29B116BB0110100B168B16003040
:10024000A1000C108A112D286400BD0B2D2904304B
:10025000BD003B08183C0318BB0A0B118A112D285E
:10026000083083169B009C131C141A088312E600A6
:10027000073083169B009C131C141A088312E70096
:100280006608D0006708CF000230A000A00B462906
:100290004929000083169B019C131C141A08831221
:1002A000E1000230A000A00B5329562900000130C4
:1002B00083169B009C131C141A088312D60002306C
:1002C000A000A00B612964290000023083169B0066
:1002D0009C131C141A088312D4000230A000A00B37
:1002E0006F2972290000033083169B009C131C1495
:1002F0001A088312D5000230A000A00B7D298029A6
:100300000000043083169B009C131C141A088312EF
:10031000D801D7000230A000A00B8C298F29000043
:10032000053083169B009C131C141A088312D900F5
:100330000230A000A00B9A299D29000006308316E8
:100340009B009C131C141A088312E5000230A000C5
:10035000A00BA829AB290000193083169B009C1321
:100360001C141A088312DA000230A000A00BB62970
:10037000B92900001A3083169B009C131C141A081C
:100380008312DB000230A000A00BC429C7290000A3
:100390001B3083169B009C131C141A088312DC006C
:1003A0000230A000A00BD229D52900001C308316F2
:1003B0009B009C131C141A088312DD000230A0005D
:1003C000A00BE029E32900001D3083169B009C133D
:1003D0001C141A088312DE000230A000A00BEE29C4
:1003E000F12900001E3083169B009C131C141A0870
:1003F0008312DF000230A000A00BFC29FF290000BF
:100400001F3083169B009C131C141A088312E000F3
:100410000230A000A00B0A2A0D2A0000203083160B
:100420009B009C131C141A088312C7000800F030AC
:10043000950583160108C7390838810005308312F5
:10044000900010108316011383120B168B1683165F
:100450008C10C03083128B041730BB00B113D8014D
:100460000330D700562D3113831605158312051D51
:100470003D2A05108316051083121930A000A00B29
:100480003F2A422A0000831605158312051D4E2AB5
:1004900005148316051083123117852A6030A000D9
:1004A000A00B502A000083160515831205195D2A3A
:1004B000051483160510642A83120514831605108B
:1004C00083123117852A831619308312A000A00BDE
:1004D000672A6A2A00008316051583120519762AF1
:1004E00005148316051083123117852A6030A00089
:1004F000A00B782A00008316051583120519852A9A
:10050000051483160510831231170800051483168D
:100510000510640005308312E800A330E9001230B2
:10052000E902031CA12A69308400FC308005031015
:10053000800C800C00080319A12A9F2A0000800B60
:100540009E2AE80B8D2A0800670DBE00BE0DBE0D69
:10055000F830BE050C3066073B02031CAA2A0B13B9
:100560008B138B1BB02A3322BC013E083C020318BC
:10057000062B0314BF0DC00DC10D031CC12A33226D
:10058000022B311305148316051019308312A000B5
:10059000A00BC82ACB2A0000831605158312051963
:1005A000D32A3117022B6030A000A00BD52A0000FF
:1005B000831605158312051DE22A05108316051002
:1005C000E92A831205148316051083123117022BB2
:1005D000831619308312A000A00BEC2AEF2A00002A
:1005E000831605158312051DF72A3117022B60307B
:1005F000A000A00BF92A0000831605158312051D23
:10060000022B3117311B0A2BBC0AB52A86228622FF
:10061000862286220514831605108312BB018B10D7
:10062000C0308B048B160800C4014A08D03A031965
:100630003E2B043A0319492B1D3A0319532B233A35
:1006400003196F2B0D3A0319962BEE3A0319BE2BA3
:100650002B3A0319812C013A0319A52C073A0319E7
:10066000AA2C013A0319D12C033A0319DA2C013AC6
:100670000319E92C163A0319F72C002D831687115C
:100680008312871583160711831207156430B8008B
:10069000022D831687118312871183160711831287
:1006A0000711B801022D4B08643C031D622B831611
:1006B000871183128715831607118312071564307B
:1006C000B8006E2BCB08031D6E2B83168711831287
:1006D00087118316071183120711B801022D4B08E9
:1006E000103C031C952B4B08C30009304307E60060
:1006F000660883169B009C131C141A088312B8000A
:100700003808643C031D8D2B8316071183120715CF
:100710008316871183128715952B83160711831271
:1007200007118316871183128711022D4B08103C85
:10073000031CBD2B0B138B138B1B9B2B09304B07FF
:10074000E6000B08A0008B13660883169B0083123B
:10075000380883169A009C131C1555309D00AA304A
:100760009D009C149C18B22B1C11831220088B0432
:10077000B92BBA2B0000C0308B04022D0830831631
:100780009B009C131C141A088312E6000730831682
:100790009B009C131C141A088312E7006608D00003
:1007A0006708CF004B080F39D1004B0810390319E7
:1007B000DD2B103A0319312C802CA3010130A2004B
:1007C0005108A0000319E92B0310A20DA30DA00BE3
:1007D000E42B2208FF3AA000FF30A3062008CF0533
:1007E0002308D0054F08E6000B08A0008B13073044
:1007F00083169B0083124F0883169A009C131C15C6
:1008000055309D00AA309D009C149C18052C1C118D
:10081000831220088B040230A000A00B0D2C102C9A
:1008200000005008E6000B08A0008B130830831668
:100830009B008312500883169A009C131C15553098
:100840009D00AA309D009C149C18242C1C1183121E
:1008500020088B040230A000A00B2C2C2F2C0000B1
:10086000802CA3010130A2005108A00003193D2CE7
:100870000310A20DA30DA00B382C2208CF042308CF
:10088000D0044F08E6000B08A0008B130730831636
:100890009B0083124F0883169A009C131C15553039
:1008A0009D00AA309D009C149C18542C1C1183128E
:1008B00020088B040230A000A00B5C2C5F2C0000F1
:1008C0005008E6000B08A0008B13083083169B002D
:1008D0008312500883169A009C131C1555309D00F6
:1008E000AA309D009C149C18732C1C1183122008A4
:1008F0008B040230A000A00B7B2C7E2C0000802CEF
:10090000022D4B083F3C031CA42C4B08E5000B08B0
:10091000A0008B13063083169B0083126508831694
:100920009A009C131C1555309D00AA309D009C1404
:100930009C18982C1C11831220088B040230A000F4
:10094000A00BA02CA32C0000022D4B08E2000130CC
:10095000E400022D4B08E300640BCF2C6308203C1D
:10096000031CCF2CE4010B08A0008B136308831633
:100970009B008312620883169A009C131C15553045
:100980009D00AA309D009C149C18C42C1C1183123D
:1009900020088B040630A000A00BCC2C00003021D6
:1009A000022D6508C1006208C0000230E600E700C1
:1009B000A422022D4B08E3006308203C031CE82C12
:1009C000630883169B009C131C141A088312E20010
:1009D000022D6508C10083169B019C131C141A0884
:1009E0008312C0000230E600E700A422022D650851
:1009F000C1000330C0000230E600E700A422022D4F
:100A00000130C400C408031D1B2D0B08A0008B136C
:100A100083169B018312380883169A009C131C15B9
:100A200055309D00AA309D009C149C18152D1C115A
:100A3000831220088B040230E60066308400000830
:100A40000319302D0130A100A001A00B252DA10B11
:100A5000242D4A30A000A00B2B2D2E2D800B222DF3
:100A6000C501080003081F398300613083168F0019
:100A70000F088312B801BA01B9010430BD0001307A
:100A8000C600D330C7000130CE002C30CD00D201DB
:100A9000D3010430E5001F13003083169100831248
:100AA0009A0107309900AC013021172A08308316CB
:100AB0009B009C131C141A088312E600073083164F
:100AC0009B009C131C141A088312E7006608D000D0
:100AD0006708CF0083169B019C131C141A0883120D
:100AE000E1006108643C031D7E2D8316071183120B
:100AF00007158316871183128715862D8316071114
:100B0000831207118316871183128711D8010330CE
:100B1000D7006400B11FB82D490F902D1423B72DB5
:100B200065084902031D962D1423B72D4708490275
:100B3000031D9C2D1423B72D4908BF3C0318B72D66
:100B40004908D03C031CB72D49080F39D100500883
:100B5000A3004F08A2005108A0000319B42D0310F0
:100B6000A30CA20CA00BAF2D220822181423B11342
:040B7000892D630068
:1042000064003200000064000500060004000100A4
:08421000000006000700080091
:02424000D300A9
:02400E00D433A9
:00000001FF
;PIC16F684
;CRC=FE53  CREATED="15-Jun-21 15:11"
