:1000000005308A00B32D0000831A0A28A400030ECD
:10001000A5000F288312A400030EA500A5140A084A
:10002000AB008A018313A40E0408A6002008A700D1
:100030002108A8002208A9002308AA0083128B1E09
:1000400023280B1939290B1E27288B1846288C309A
:100050008400001C2D280C1880288C308400801C03
:1000600033288C184529260884002708A000280872
:10007000A1002908A2002A08A3002B088A00250E47
:1000800083008312240EA5188316090064008316CA
:100090008C1083120B128B12B601053090008E016A
:1000A000FC308F00B7308E0083160C148312C80109
:1000B0003114B301B401B501B701B201BB018B101A
:1000C0008A1133286400B117420B6B283408C90029
:1000D0003308CA007428C208031D74283508C900F3
:1000E0003408CA003308CB0010108B100B1683168F
:1000F0000C1083128B1683168C148312BB0108001C
:10010000CE011430CD003112311CC12883160515E3
:100110008312B1100519B1143111B1183115311014
:10012000311DA828311DA72883160515831231110A
:1001300005193115CD08031DA028CE080319A528DF
:100140004D080319CE03CD03A62831119228B928F2
:100150003119B92883160515831231110519311586
:100160004D080319CE03CD0BB828CE08031931155D
:10017000A828053090008E01FF308F0069308E0076
:100180003429831605158312B1110519B1153114DF
:10019000053090008E01FE308F00A1308E0064008B
:1001A0003112B20A4C10CC1032081A3C031C2C2914
:1001B000B118E128B11DE1280314B30DB40DB50D3C
:1001C0002B29B11CEA28B119EA280310B30DB40D8C
:1001D000B50D2B29B11C2329B11D23293208113A51
:1001E0000319FC28033A0319FE280B3A03190C29BA
:1001F000033A03190E291B29C80A2229C80A4808EC
:10020000023C031D0A290130C20062204C144C112B
:10021000CC100B2931162229C80A2229C80A4808FD
:10022000023C031D1929C20162204C104C15CC1050
:100230001A2931162229311610100B1683168C1428
:100240008312BB012B293116BB0110100B1683162C
:100250008C1483128B163429B116BB0110100B16A7
:100260008B1683168C1483120030A1000C108A1197
:1002700033286400BD0B42290430BD003B08183C04
:100280000318BB0A0B118A1133286708A3006608FC
:10029000E60A0319E70AEC002308ED0038086C02AF
:1002A000031D5C29ED08031D5C29CC1D5C29831608
:1002B0008711831287156829E708031D63296608DB
:1002C0003802031868298316871183128711CC110D
:1002D0008C108A113328083083169B009C131C1441
:1002E0001A088312E800073083169B009C131C1425
:1002F0001A088312E9006808D0006908CF000230AC
:10030000A000A00B81298429000083169B019C1367
:100310001C141A088312E1000230A000A00B8E29E1
:1003200091290000013083169B009C131C141A08AD
:100330008312D6000230A000A00B9C299F29000048
:10034000023083169B009C131C141A088312D400DD
:100350000230A000A00BAA29AD29000003308316AB
:100360009B009C131C141A088312D5000230A000B5
:10037000A00BB829BB290000043083169B009C13F6
:100380001C141A088312D801D7000230A000A00B59
:10039000C729CA290000053083169B009C131C1432
:1003A0001A088312D9000230A000A00BD529D82941
:1003B0000000063083169B009C131C141A0883123D
:1003C000E5000230A000A00BE329E6290000193067
:1003D00083169B009C131C141A088312DA00023047
:1003E000A000A00BF129F42900001A3083169B000D
:1003F0009C131C141A088312DB000230A000A00B0F
:10040000FF29022A00001B3083169B009C131C143A
:100410001A088312DC000230A000A00B0D2A102A5B
:1004200000001C3083169B009C131C141A088312B6
:10043000DD000230A000A00B1B2A1E2A00001D3088
:1004400083169B009C131C141A088312DE000230D2
:10045000A000A00B292A2C2A00001E3083169B0026
:100460009C131C141A088312DF000230A000A00B9A
:10047000372A3A2A00001F3083169B009C131C1455
:100480001A088312E0000230A000A00B452A482A77
:100490000000203083169B009C131C141A08831242
:1004A000C7000800F03095057830A10006389200AA
:1004B0007430831692000108C7390838810005306E
:1004C0008312900010108316011383120B168B16E3
:1004D00083168C14C03083128B041730BB00B11309
:1004E000D8010330D700D82D6B30840000080319E1
:1004F000872A0130A100A001A00B7C2AA10B7B2A36
:100500004A30A000A00B822A852A800B792A080095
:10051000E808031D9A2AE908031D9A2A8316071181
:10052000831207156430EB007422831607118312BF
:100530000711DA2A6808643C031DAD2AE908031D87
:10054000AD2A83168711831287156430EB0074225D
:100550008316871183128711DA2AE808031DB32A4C
:10056000E9080319CF2AE908031DCF2A6808633C6C
:10057000031CCF2ACC118316071183120715643090
:10058000EB00742283160711831207110C30EA0066
:10059000FA30EB007422EA0BC82ACC15DA2A83164B
:1005A0000711831207156430EB00742283160711BC
:1005B0008312071108003113831605158312051DD8
:1005C000E52A05108316051083121930A000A00B30
:1005D000E72AEA2A0000831605158312051DF62A6C
:1005E000051483160510831231172D2B6030A000DF
:1005F000A00BF82A00008316051583120519052B98
:100600000514831605100C2B831205148316051090
:10061000831231172D2B831619308312A000A00BE3
:100620000F2B122B000083160515831205191E2BA4
:10063000051483160510831231172D2B6030A0008E
:10064000A00B202B000083160515831205192D2BF6
:10065000051483160510831231170800051483163C
:100660000510640005308312EA00A330EB0012305D
:10067000EB02031C492B6B308400FC308005031017
:10068000800C800C00080319492B472B0000800BBD
:10069000462BEA0B352B0800690DBE00BE0DBE0DC2
:1006A000F830BE050C3068073B02031C522B0B13BD
:1006B0008B138B1B582BDB22BC013E083C0203181A
:1006C000AE2B0314BF0DC00DC10D031C692BDB2223
:1006D000AA2B311305148316051019308312A000BC
:1006E000A00B702B732B00008316051583120519C0
:1006F0007B2B3117AA2B6030A000A00B7D2B0000B4
:10070000831605158312051D8A2B05108316051007
:10071000912B831205148316051083123117AA2B0F
:10072000831619308312A000A00B942B972B000086
:10073000831605158312051D9F2B3117AA2B6030D8
:10074000A000A00BA12B0000831605158312051D28
:10075000AA2B3117311BB22BBC0A5D2B2E232E2363
:100760002E232E230514831605108312BB018B1034
:10077000C0308B048B1683168C1483120800C401BE
:100780004A082A3A0319E92B023A0319FF2B013AC6
:100790000319072CC33A03190E2C0D3A0319292CFF
:1007A000EE3A0319512C2B3A0319142D013A03196F
:1007B000382D073A03193D2D013A0319642D033AE8
:1007C00003196D2D013A03197C2D163A03198A2D50
:1007D000932DCC114B0855020318F12B5508B80086
:1007E000FA2B54084B020318F82B5408B800FA2BC4
:1007F0004B08B800E9013808E8008822952DCC1193
:100800006430B800E9013808E8008822952DCC1141
:10081000B801E9013808E8008822952D4B08103C02
:10082000031C242C4B08C30009304307E800680868
:1008300083169B009C131C141A088312B8003808F6
:100840005402031C242CB801E9013808E80088226E
:10085000952D4B08103C031C502C0B138B138B1B3A
:100860002E2C09304B07E8000B08A0008B136808FA
:1008700083169B008312380883169A009C131C155C
:1008800055309D00AA309D009C149C18452C1C11CD
:10089000831220088B044C2C4D2C0000C0308B049C
:1008A000952D083083169B009C131C141A08831284
:1008B000E800073083169B009C131C141A0883124F
:1008C000E9006808D0006908CF004B080F39D10053
:1008D0004B0810390319702C103A0319C42C132D2E
:1008E000A3010130A2005108A00003197C2C0310C1
:1008F000A20DA30DA00B772C2208FF3AA000FF3019
:10090000A3062008CF052308D0054F08E8000B08F0
:10091000A0008B13073083169B0083124F088316A9
:100920009A009C131C1555309D00AA309D009C1404
:100930009C18982C1C11831220088B040230A000F4
:10094000A00BA02CA32C00005008E8000B08A0006E
:100950008B13083083169B008312500883169A006D
:100960009C131C1555309D00AA309D009C149C18AA
:10097000B72C1C11831220088B040230A000A00B9E
:10098000BF2CC22C0000132DA3010130A20051087E
:10099000A0000319D02C0310A20DA30DA00BCB2C8B
:1009A0002208CF042308D0044F08E8000B08A00059
:1009B0008B13073083169B0083124F0883169A000F
:1009C0009C131C1555309D00AA309D009C149C184A
:1009D000E72C1C11831220088B040230A000A00B0E
:1009E000EF2CF22C00005008E8000B08A0008B133D
:1009F000083083169B008312500883169A009C13BC
:100A00001C1555309D00AA309D009C149C18062D85
:100A10001C11831220088B040230A000A00B0E2DA5
:100A2000112D0000132D952D4B083F3C031C372D35
:100A30004B08E5000B08A0008B13063083169B00C3
:100A40008312650883169A009C131C1555309D006F
:100A5000AA309D009C149C182B2D1C118312200879
:100A60008B040230A000A00B332D362D0000952DF5
:100A70004B08E2000130E400952D4B08E300640BC5
:100A8000622D6308203C031C622DE4010B08A000CA
:100A90008B13630883169B008312620883169A00E7
:100AA0009C131C1555309D00AA309D009C149C1869
:100AB000572D1C11831220088B040630A000A00BB8
:100AC0005F2D00006B21952D6508C1006208C000F4
:100AD0000230E800E9004C23952D4B08E300630841
:100AE000203C031C7B2D630883169B009C131C1465
:100AF0001A088312E200952D6508C10083169B0138
:100B00009C131C141A088312C0000230E800E9008C
:100B10004C23952D6508C1000330C0000230E80069
:100B2000E9004C23952D0130C400C408031DAE2DEF
:100B30000B08A0008B1383169B01831238088316C1
:100B40009A009C131C1555309D00AA309D009C14E2
:100B50009C18A82D1C11831220088B040230EB0076
:100B60007422C501080003081F3983006130831611
:100B70008F000F088312B801BA01B9010430BD001B
:100B80000130C600FF30C7000130CE002C30CD0050
:100B9000D201D3014130E500CC111F130030831680
:100BA000910083129A0107309900AC016B21522AFF
:100BB000083083169B009C131C141A088312E8004B
:100BC000073083169B009C131C141A088312E9003B
:100BD0006808D0006908CF0083169B019C131C1481
:100BE0001A088312E100D8010330D7006400B11F56
:100BF000252E490FFD2DBF23242E65084902031D14
:100C0000032EBF23242E47084902031D092EBF23AC
:100C1000242E4908BF3C0318242E4908D03C031C4D
:100C2000242E49080F39D1005008A3004F08A20014
:100C30005108A0000319212E0310A30CA20CA00B35
:0E0C40001C2E22082218BF23B113F62D6300CC
:104200006400320000006400050006004100010067
:08421000000006000700080091
:02424000FF007D
:02400E00D433A9
:00000001FF
;PIC16F684
;CRC=8273  CREATED="17-Jun-21 14:49"
