:1000000006308A00492E0000831A0A28A400030E35
:10001000A5000F288312A400030EA500A5140A084A
:10002000AB008A018313A40E0408A6002008A700D1
:100030002108A8002208A9002308AA0083128B1E09
:1000400023280B1924290B1E27288B1840288C30B5
:100050008400001C2D280C1874282608840027080A
:10006000A0002808A1002908A2002A08A3002B0844
:100070008A00250E83008312240EA518831609001A
:1000800064000B128B12B601053090008E01FC301B
:100090008F00B7308E0083160C148312CA013114FE
:1000A000B301B401B501B701B201BD018B108A11D2
:1000B0002D286400B117440B62283408CB003308A4
:1000C000CC006B28C408031D6B283508CB0034080E
:1000D000CC003308CD0010108B100B1683160C10BB
:1000E00083128B16BD010800D0011430CF003112ED
:1000F000311CB528831605158312B1100519B114EA
:100100003111B11831153110311D9C28311D9B283A
:10011000831605158312311105193115CF08031DFA
:100120009428D008031999284F080319D003CF0346
:100130009A2831118628AD283119AD288316051566
:1001400083123111051931154F080319D003CF0B54
:10015000AC28D008031931159C28053090008E0179
:10016000FF308F0069308E001F298316051583121A
:10017000B1110519B1153114053090008E01FE3012
:100180008F00A1308E0064003112B20A4E10CE10E2
:1001900032081A3C031C1A29B118D528B11DD528DC
:1001A0000314B30DB40DB50D1929B11CDE28B11916
:1001B000DE280310B30DB40DB50D1929B11C142997
:1001C000B11D14293208113A0319F028033A031912
:1001D000F2280B3A03190029033A031902290F29BF
:1001E000CA0A1329CA0A4A08023C031DFE28013024
:1001F000C40059204E144E11CE10FF283116132979
:10020000CA0A1329CA0A4A08023C031D0D29C4015F
:1002100059204E104E15CE100E29311613293116C5
:1002200010100B16BD0119293116BD0110100B1647
:100230008B161F29B116BD0110100B168B1600303E
:10024000A1000C108A112D286400BF0B2D29043049
:10025000BF003D08183C0318BD0A0B118A112D2858
:10026000083083169B009C131C141A088312E900A3
:10027000073083169B009C131C141A088312EA0093
:100280006908D2006A08D1000230A000A00B4629FC
:100290004929000083169B019C131C141A08831221
:1002A000E3000230A000A00B5329562900000130C2
:1002B00083169B009C131C141A088312D80002306A
:1002C000A000A00B612964290000023083169B0066
:1002D0009C131C141A088312D6000230A000A00B35
:1002E0006F2972290000033083169B009C131C1495
:1002F0001A088312D7000230A000A00B7D298029A4
:100300000000043083169B009C131C141A088312EF
:10031000DA01D9000230A000A00B8C298F2900003F
:10032000053083169B009C131C141A088312DB00F3
:100330000230A000A00B9A299D29000006308316E8
:100340009B009C131C141A088312E8000230A000C2
:10035000A00BA829AB290000193083169B009C1321
:100360001C141A088312DC000230A000A00BB6296E
:10037000B92900001A3083169B009C131C141A081C
:100380008312DD000230A000A00BC429C7290000A1
:100390001B3083169B009C131C141A088312DE006A
:1003A0000230A000A00BD229D52900001C308316F2
:1003B0009B009C131C141A088312DF000230A0005B
:1003C000A00BE029E32900001D3083169B009C133D
:1003D0001C141A088312E0000230A000A00BEE29C2
:1003E000F12900001E3083169B009C131C141A0870
:1003F0008312E1000230A000A00BFC29FF290000BD
:100400001F3083169B009C131C141A088312E200F1
:100410000230A000A00B0A2A0D2A0000203083160B
:100420009B009C131C141A088312C90021308316E8
:100430009B009C131C141A088312E4000230A000D5
:10044000A00B202A232A00000800F030950583160F
:100450000108C73908388100053083129000101058
:100460008316011383120B168B1683168C10C03063
:1004700083128B041730BD00B113DA010330D900A9
:100480006F2E3113831605158312051D4B2A051097
:100490008316051083121930A000A00B4D2A502A94
:1004A0000000831605158312051D5C2A05148316AA
:1004B000051083123117932A6030A000A00B5E2A2A
:1004C000000083160515831205196B2A051483167F
:1004D0000510722A83120514831605108312311732
:1004E000932A831619308312A000A00B752A782A4C
:1004F00000008316051583120519842A0514831636
:10050000051083123117932A6030A000A00B862AB1
:1005100000008316051583120519932A0514831606
:1005200005108312311708000514831605106400A6
:1005300005308312EB00A330EC001230EC02031CF8
:10054000AF2A6C308400FC3080050310800C800CD6
:1005500000080319AF2AAD2A0000800BAC2AEB0B70
:100560009B2A08006A0DC000C00DC00DF830C00500
:100570000C3069073D02031CB82A0B138B138B1B2D
:10058000BE2A4122BE0140083E020318142B031468
:10059000C10DC20DC30D031CCF2A4122102B3113F4
:1005A00005148316051019308312A000A00BD62A5B
:1005B000D92A00008316051583120519E12A31177F
:1005C000102B6030A000A00BE32A00008316051555
:1005D0008312051DF02A051083160510F72A8312D1
:1005E00005148316051083123117102B831619304A
:1005F0008312A000A00BFA2AFD2A0000831605151D
:100600008312051D052B3117102B6030A000A00BA5
:10061000072B0000831605158312051D102B3117BB
:10062000311B182BBE0AC32A9422942294229422AE
:100630000514831605108312BD018B10C0308B0486
:100640008B160800C6014C08D03A03194C2B043A0B
:1006500003196E2B1D3A03198D2B233A0319D52B41
:100660000D3A0319302CEE3A0319B82C2B3A031922
:100670007B2D013A03199F2D073A0319A42D013A46
:100680000319CB2D033A0319D42D013A0319E32D95
:10069000163A0319F12DFA2D68084B02031D572B4A
:1006A00083168711831287116430B8006D2B4B08B5
:1006B000063C031D622B8316071183120711643059
:1006C000B9006D2B831687118312871183160711CA
:1006D000831207116430B800B900FC2D68084B0282
:1006E000031D782B8316871183128715B8018C2B75
:1006F0004B08063C031D822B831607118312071536
:10070000B9018C2B83168711831287158316071165
:1007100083120715B801B901FC2D4D08643C031D77
:10072000B32B68084B02031D9C2B83168711831281
:1007300087116430B800B22B4B08063C031DA72B71
:1007400083160711831207116430B900B22B831688
:1007500087118312871183160711831207116430E2
:10076000B800B900D42BCD08031DD42B68084B0268
:10077000031DC02B8316871183128715B801D42B54
:100780004B08063C031DCA2B83160711831207155D
:10079000B901D42B8316871183128715831607118D
:1007A00083120715B801B901FC2D4D08103C031C3C
:1007B0002F2C4D08C50009304507E900690883164C
:1007C0009B009C131C141A088312B80022304507A2
:1007D000E900690883169B009C131C141A088312F5
:1007E000B90068084B02031D032C3808643C031D44
:1007F000FE2B8316871183128711022C8316871113
:10080000831287152F2C4B08063C031D152C390825
:10081000643C031D102C8316071183120711142C3E
:1008200083160711831207152F2C3808643C031D0B
:100830001E2C8316871183128711222C8316871191
:10084000831287153908643C031D2B2C831607116E
:10085000831207112F2C8316071183120715FC2D05
:100860004D08103C031CB72C0B138B138B1B352C22
:1008700068084B02031D592C09304D07E9000B088D
:10088000A0008B13690883169B0083123808831617
:100890009A009C131C1555309D00AA309D009C1495
:1008A0009C18502C1C11831220088B04572C582C98
:1008B00000004B08063C031D7B2C22304D07E9004D
:1008C0000B08A0008B13690883169B00831239085C
:1008D00083169A009C131C1555309D00AA309D006C
:1008E0009C149C18712C1C11831220088B04782CEA
:1008F000792C0000B52C09304D07E9000B08A00049
:100900008B13690883169B008312380883169A009C
:100910009C131C1555309D00AA309D009C149C18FA
:100920008F2C1C11831220088B04962C972C00000E
:1009300022304D07E9000B08A0008B1369088316CD
:100940009B008312390883169A009C131C1555309E
:100950009D00AA309D009C149C18AC2C1C11831285
:1009600020088B04B32CB42C0000C0308B04FC2D69
:10097000083083169B009C131C141A088312E9008C
:10098000073083169B009C131C141A088312EA007C
:100990006908D2006A08D1004D080F39D3004D080C
:1009A00010390319D72C103A03192B2D7A2DA301D6
:1009B0000130A2005308A0000319E32C0310A20D7C
:1009C000A30DA00BDE2C2208FF3AA000FF30A306E7
:1009D0002008D1052308D2055108E9000B08A00022
:1009E0008B13073083169B008312510883169A00DD
:1009F0009C131C1555309D00AA309D009C149C181A
:100A0000FF2C1C11831220088B040230A000A00BC5
:100A1000072D0A2D00005208E9000B08A0008B13D7
:100A2000083083169B008312520883169A009C1389
:100A30001C1555309D00AA309D009C149C181E2D3D
:100A40001C11831220088B040230A000A00B262D5D
:100A5000292D00007A2DA3010130A2005308A00027
:100A60000319372D0310A20DA30DA00B322D220860
:100A7000D1042308D2045108E9000B08A0008B130D
:100A8000073083169B008312510883169A009C132B
:100A90001C1555309D00AA309D009C149C184E2DAD
:100AA0001C11831220088B040230A000A00B562DCD
:100AB000592D00005208E9000B08A0008B130830E4
:100AC00083169B008312520883169A009C131C15F0
:100AD00055309D00AA309D009C149C186D2D1C1152
:100AE000831220088B040230A000A00B752D782DF6
:100AF00000007A2DFC2D4D083F3C031C9E2D4D0817
:100B0000E8000B08A0008B13063083169B008312AD
:100B1000680883169A009C131C1555309D00AA3056
:100B20009D009C149C18922D1C11831220088B048C
:100B30000230A000A00B9A2D9D2D0000FC2D4D0829
:100B4000E5000130E700FC2D4D08E600670BC92DDC
:100B50006608203C031CC92DE7010B08A0008B137D
:100B6000660883169B008312650883169A009C13FF
:100B70001C1555309D00AA309D009C149C18BE2D5C
:100B80001C11831220088B040630A000A00BC62D78
:100B900000003021FC2D6808C3006508C200023047
:100BA000E900EA00B222FC2D4D08E6006608203C70
:100BB000031CE22D660883169B009C131C141A0864
:100BC0008312E500FC2D6808C30083169B019C136B
:100BD0001C141A088312C2000230E900EA00B22293
:100BE000FC2D6808C3000330C2000230E900EA00AF
:100BF000B222FC2D0130C600C608031D322E0B08A0
:100C0000A0008B1383169B018312380883169A0069
:100C10009C131C1555309D00AA309D009C149C18F7
:100C20000F2E1C11831220088B040230A000A00B91
:100C3000172E1A2E00000B08A0008B1321308316EC
:100C40009B008312390883169A009C131C1555309B
:100C50009D00AA309D009C149C182C2E1C11831200
:100C600020088B040230E900693084000008031971
:100C7000472E0130A100A001A00B3C2EA10B3B2E62
:100C80004A30A000A00B422E452E800B392EC70102
:100C9000080003081F398300613083168F000F0896
:100CA0008312B801B901BA01BC01BB010430BF0015
:100CB0000130C800D330C9000130D0002C30CF0043
:100CC000D401D5010530E8001F13003083169100D0
:100CD00083129A0107309900AC013021252A08308F
:100CE00083169B009C131C141A088312E90007301A
:100CF00083169B009C131C141A088312EA006908CF
:100D0000D2006A08D10083169B019C131C141A0898
:100D10008312E300213083169B009C131C141A08D5
:100D20008312E4006308643C031D9D2E8316871123
:100D3000831287116430B800A22E831687118312A4
:100D40008715B8016408643C031DAD2E8316071196
:100D5000831207116430B900B22E83160711831273
:100D60000715B901DA010330D9006400B11FE82E7C
:100D70004B0FBC2E2223E72E68084B020319C42E0A
:100D80004B08063C031DC62E2223E72E49084B02C2
:100D9000031DCC2E2223E72E4B08BF3C0318E72E61
:100DA0004B08D03C031CE72E4B080F39D3005208E8
:100DB000A3005108A2005308A0000319E42E031059
:100DC000A30CA20CA00BDF2E220822182223B113A1
:040DD000B52E6300D9
:1042000064003200000064000500060005000100A3
:08421000000006000700080091
:02424000D300A9
:02400E00D433A9
:00000001FF
;PIC16F684
;CRC=AE38  CREATED="16-Jun-21 19:24"
